:10000000753055753104752005E530944114F5308F
:0F001000C3901066E531939441C390100078338C
:0F001F007A1AC0E093F6D0E00408DAF6901032B7
:10002E0078507A1A741A95301414C0E093F6D0E012
:10003E000408DAF67C709010667A1A7833E4C0E021
:0F004E0093B40002801CFFE6B5070ED0E0C0019E
:0F005D00A804A6E0D0010CA380E008D0E005E0E5
:10006C00C0E0DAE57B5079907870E62BC000F8E6BA
:10007C00F7D0000809D520F211947520057890E688
:10008C0011B608D520F980FE743811A9740F11A986
:0F009C00740611A9740111A9748011A922F5909D
:0F00AB00C2B5C2B6D2B711C3C2B722F590D2B553
:0F00BA00C2B6D2B711C3C2B722C000C00178329C
:0B00C90079FFD9FED8FAD001D0002248
:101000004142434445464748494A4B4C4D4E4F5058
:101010005152535455565758595A414243444546E4
:101020004748494A4B4C4D4E4F50514553545557E4
:10103000595A5A595857565554535251504F4E4D6C
:101040004C4B4A4948474645444342415A595857F0
:10105000565554535251504F4E4D4C4B4A494847A8
:0B106000464544434241544553544B65
:00000001FF
