:0600000002010002025C97
:03000B00020247A7
:10010000D28875891175A883759000C28D758C3C55
:0F011000758AB0D28C3127314B316F319331B7B3
:0F011F0031DB31FF512380EE6003E4801EC28F7D
:0F012E00D291758DFC758B40D28E308FFDC291B2
:10013D00C28F758DFC758B40308FFD80DD22600385
:0F014D00E4801EC28FD291758DFC758BADD28E62
:10015C00308FFDC291C28F758DFC758BAD308FFDCC
:0F016C0080DD226003E4801EC28FD291758DFD6D
:0F017B00758B09D28E308FFDC291C28F758DFDAD
:10018A00758B09308FFD80DD226003E4801EC28FEB
:0F019A00D291758DFD758B34D28E308FFDC29151
:1001A900C28F758DFD758B34308FFD80DD22600324
:0F01B900E4801EC28FD291758DFD758B82D28E20
:1001C800308FFDC291C28F758DFD758B82308FFD8A
:0F01D80080DD226003E4801EC28FD291758DFD01
:0F01E700758BC8D28E308FFDC291C28F758DFD82
:1001F600758BC8308FFD80DD226003E4801EC28FC0
:0F020600D291758DFE758B06D28E308FFDC29111
:10021500C28F758DFE758B06308FFD80DD226003E4
:0F022500E4801EC28FD291758DFE758B22D28E12
:10023400308FFDC291C28F758DFE758B22308FFD7C
:0F02440080DD22C28D758C3C758AB00FBF140807
:1002530005307F007401D28F32C2913089FDC2898B
:010263003268
:00000001FF
